:100000000C9434000C9449000C9449000C94490061
:100010000C9449000C9449000C9449000C9449003C
:100020000C9449000C9449000C9449000C9449002C
:100030000C9449000C9449000C9449000C9449001C
:100040000C9449000C9449000C9449000C9449000C
:100050000C9449000C9449000C9449000C944900FC
:100060000C9449000C94490011241FBECFEFD8E036
:10007000DEBFCDBF11E0A0E0B1E0ECE8F2E002C0ED
:1000800005900D92A033B107D9F70E94C0000C94DF
:1000900044010C9400001092B90088E48093B800E9
:1000A00084E08093BC00089584EA8093BC00809132
:1000B000BC008823E4F7089584E98093BC00089588
:1000C0008093BB0084E88093BC008091BC008823AF
:1000D000E4F7089584E88093BC008091BC008823F5
:1000E000E4F78091BB000895CF93C82F0E9454007D
:1000F0008C2F880F0E94600080E00E9460008FEFCC
:100100000E9460000E945C00CF910895CF93C82F99
:100110000E9454008C2F880F0E94600089E00E948A
:1001200060000E9454008C2F90E0880F991F81601E
:100130000E9460000E946A00C82F0E945C008C2F01
:10014000CF910895CF93DF93EC010E94540080EC8F
:100150000E94600080E40E946000CE01929582952A
:100160008F7089279F7089270E9460008C2F82954D
:10017000807F0E9460000E945C00DF91CF91089513
:100180000E944B0081E20E94740082E20E9474008F
:1001900083E20E94740081E20E948600182F10956D
:1001A00082E20E948600D82FD09583E20E948600CA
:1001B000C82FC09580E018C0482F50E0212F30E0B4
:1001C000082E02C0359527950A94E2F720FF0BC050
:1001D000440F551FFA01E050FF4F808191810E942A
:1001E000A20091E004C08F5F883030F390E0992343
:1001F000D9F01DC0482F50E02D2F30E0082E02C04E
:10020000359527950A94E2F720FF0CC0FA0138963D
:10021000EE0FFF1FE050FF4F808191810E94A200EE
:1002200091E005C08F5F01C080E0883018F399230A
:10023000D9F01DC0482F50E02C2F30E0082E02C00E
:10024000359527950A94E2F720FF0CC0FA017096C5
:10025000EE0FFF1FE050FF4F808191810E94A200AE
:1002600091E005C08F5F01C080E0883018F39111E4
:1002700004C080E090E00E94A20083EC99E0019726
:0C028000F1F700C0000087CFF894FFCF1A
:10028C009601AF01C901E30100021E023E026002A9
:10029C008402AB02D302FE022C035E039203C90359
:1002AC00030440048104C5040D055905A905FD0589
:00000001FF
