:100000000C9434000C9451000C9451000C94510049
:100010000C9451000C9451000C9451000C9451001C
:100020000C9451000C9451000C9451000C949B00C2
:100030000C9451000C9451000C9451000C945100FC
:100040000C9451000C9451000C9451000C945100EC
:100050000C9451000C9451000C9451000C945100DC
:100060000C9451000C94510011241FBECFEFD8E026
:10007000DEBFCDBF11E0A0E0B1E0E8ECF3E002C0EC
:1000800005900D92A033B107D9F721E0A0E3B1E0CC
:1000900001C01D92A333B207E1F70E9436010C9410
:1000A000E2010C9400001092B90088E48093B8003B
:1000B000089584EA8093BC008091BC008823E4F713
:1000C000089584E98093BC008091BC0084FDFCCF3E
:1000D00008958093BB0084E88093BC008091BC00AD
:1000E0008823E4F7089584E88093BC008091BC00E5
:1000F0008823E4F78091BB000895CF93DF93EC0150
:100100000E94590082EC0E94690080E40E9469000C
:10011000CE01929582958F7089279F7089270E94C2
:1001200069008C2F8295807F0E9469000E94610087
:10013000DF91CF9108951F920F920FB60F92112465
:100140002F933F934F935F936F937F938F939F93DF
:10015000AF93BF93EF93FF9380913001882329F0F1
:100160008FEF9FE00E947D0004C080E090E00E943D
:100170007D0081E090913001911180E08093300109
:10018000FF91EF91BF91AF919F918F917F916F916F
:100190005F914F913F912F910F900FBE0F901F9045
:1001A0001895009739F41092810080E090E00E9449
:1001B0007D000895A0E0B0E09C01AD01220F331F47
:1001C000441F551F60E074E284EF90E00E94C0017C
:1001D000DA01C9010197A109B109F8949093890046
:1001E00080938800109285001092840089E08093AB
:1001F000810078940895CF93C82F0E945900CC0FA6
:100200008C2F0E94690080E00E9469008FEF0E949D
:1002100069000E9461000E9459008C2F0E946900B1
:1002200086E00E9469008FEF0E9469000E946100D1
:10023000CF910895CF93C82F0E9459008C2F880F1B
:100240000E94690089E00E9469000E9459008C2F79
:1002500090E0880F991F81600E9469000E947300DE
:10026000C82F0E9461008C2FCF910895CF93DF9308
:1002700000D000D000D0CDB7DEB70E94530010E010
:1002800005C081E2810F0E94FB001F5F1330C8F39D
:10029000109280001092810082E080936F00789429
:1002A0008FEF89838A838B838C838D838E83F12C5C
:1002B0005EC00F2EF1E2EF2EF02DEF0C8E2D0E947E
:1002C0001A010F2D10E0E1E0F0E0EC0FFD1FE00F50
:1002D000F11F9081891781F08FE19EE40197F1F77A
:1002E00000C000008E2D0E941A01E1E0F0E0EC0F4A
:1002F000FD1FE00FF11F8083E4E0F0E0EC0FFD1F35
:10030000E00FF11F9081891789F1E4E0F0E0EC0F34
:10031000FD1FE00FF11F808390E026C0E92FF0E081
:10032000282F30E0092E02C0359527950A94E2F770
:1003300020FD19C0000F111F000F111F000F111F0A
:10034000E00FF11FEE0FFF1FE050FF4F8081918102
:10035000909332018093310180913101909132016B
:100360000E94D100A4CF9F5F9830C0F2F39492E036
:100370009F1508F09ECF80E090E00E94D10097CFBB
:10038000A1E21A2EAA1BBB1BFD010DC0AA1FBB1F99
:10039000EE1FFF1FA217B307E407F50720F0A21B0B
:1003A000B30BE40BF50B661F771F881F991F1A9478
:1003B00069F760957095809590959B01AC01BD01A2
:0803C000CF010895F894FFCF6E
:1003C80006011501260137014A015D017201880104
:1003D8009F01B801D201EE010B022A024B026E0204
:1003E8009302BA02E40210033F037003A403DC0380
:00000001FF
