:100000000C942A000C9447000C9447000C94470071
:100010000C9447000C9447000C9447000C94470044
:100020000C9447000C9447000C9447000C94360243
:100030000C9447000C9447000C9447000C94470024
:100040000C9447000C9447000C9447000C94470014
:100050000C94470011241FBECFE5D4E0DEBFCDBF16
:1000600011E0A0E6B0E0E0E7FFE002C005900D92ED
:10007000A63AB107D9F721E0A6EAB1E001C01D9286
:10008000A83DB207E1F70E94F2000C94B6070C9469
:1000900000008F929F92AF92BF92CF92DF92EF9229
:1000A000FF920F931F936B017C01BA01550F880BD0
:1000B000990B0E94B7034B015C01A70196010E94B6
:1000C00043040E947F036B017C01A501940160E061
:1000D00070E080E89FE30E940D0320E030E543ECF0
:1000E00057E40E9443040E947F038A9A1C141D0453
:1000F0001E041F040CF03AC08B019C01992324F4C8
:100100000F5F1F4F2F4F3F4F359527951795079539
:10011000812C912C5401011511052105310511F196
:10012000D901C801B901A801EAE1EA95F1F700C0D7
:100130004150510961097109B9F716C04AE14A9560
:10014000F1F700C00197A109B109C1F792988FEFAB
:10015000881A980AA80AB80AC814D904EA04FB0441
:10016000D1F604C0929AF2CF929AE8CF1F910F91E4
:10017000FF90EF90DF90CF90BF90AF909F908F90C7
:1001800008950E94D101882329F082E690E00E9420
:100190006F02089580E00E94FB0185E790E00E94D5
:1001A0006F028FEF0E94FB018AE790E00E946F02CE
:1001B0000E94F5018FE790E00E946F020895CF93AF
:1001C000C82F0E94D10189E00E94FB018C2F816021
:1001D0000E94F2010E940502C82F0E94F5018C2F97
:1001E000CF910895CF93DF9300D000D000D0CDB74A
:1001F000DEB748EB51E06DEC7CEC8CE49EE30E94B2
:10020000490060E875E280E090E00E940C0284E81A
:1002100090E00E946F0260EA76E881E090E00E9440
:10022000BB0189E990E00E946F0282E40E94C10054
:100230008CEA90E00E946F0284E40E94C10081EC8D
:1002400090E00E946F0288E40E94C10086ED90E079
:100250000E946F028FEF89838A838B838BEE90E0FD
:100260000E946F020F2EFAE48F2EF1E09F2EF02DE8
:1002700082E40E94DF00182F8C8384E40E94DF0058
:10028000082F8D8388E40E94DF008E831F928F9356
:100290001F920F931F921F938FE191E09F938F9373
:1002A0000E947E026E01F4E0CF0ED11CCE010196B9
:1002B0005C010FB6F894DEBF0FBECDBF6624639419
:1002C000712C512C4AC0F601E0808E2D90E0002E5A
:1002D00002C0959587950A94E2F780FD2AC0F50142
:1002E000808190E0002E02C0959587950A94E2F7F0
:1002F00080FF1FC0EF2DF0E0EE0FFF1FEB58FE4F09
:10030000308041804F923F921F930F937F926F9264
:100310009F928F920E947E02432D542D6DEC7CECB7
:100320008CE49EE30E9449000FB6F894DEBF0FBE36
:10033000CDBF0F5F1F4FF3940830110521F69FEFDB
:10034000C91AD90AF501E1925F01F8E05F0E2FEFBB
:10035000621A720A88E1581621F0F52C00E010E0CC
:10036000B2CF9FEFE0E7F2E09150E040F040E1F7DC
:1003700000C000007DCF9B01AC0111B860E072E1CC
:100380008AE790E00E94B004DA01C9014097A10910
:10039000B109B695A7959795879580B984E086BFF2
:1003A000089594EA96BF06B607FEFDCF91B1987FF7
:1003B0009830B1F483B994E896BF06B607FEFDCF36
:1003C00021B1287F30E080FD03C048E150E002C049
:1003D00040E450E081E04217530719F480E00895AB
:1003E00081E008950E94D101089584E986BF06B690
:1003F00004FCFDCF089583B984E886BF91B1987F4E
:1004000081E0983209F480E0089584E886BF06B65A
:1004100007FEFDCF83B108950E94B50320E030E0D0
:1004200040E851E40E9443049B01AC0160E074E2A7
:1004300084EF9AE40E940D0320E030E040E85FE39F
:100440000E94A0020E94860369B970BD80B58668CB
:1004500080BD8AB188618AB9579A08955F9BFECFA3
:100460008CB108955D9BFECF8CB908951F920F92B9
:100470000FB60F9211242F933F934F935F936F9377
:100480007F938F939F93AF93BF93CF93DF93EF931C
:10049000FF93C0916000D09161000E942E0288837A
:1004A000E0916000F091610080818D3029F03196FB
:1004B000F0936100E0936000FF91EF91DF91CF91A5
:1004C000BF91AF919F918F917F916F915F914F916C
:1004D0003F912F910F900FBE0F901F901895CF93C3
:1004E000DF93EC018881882331F021960E9432024B
:1004F00089918111FBCFDF91CF910895CF93DF9345
:10050000CDB7DEB7E2970FB6F894DEBF0FBECDBF12
:10051000AE01495C5F4FFA0161917191AF01CE016B
:1005200001960E94D204CE0101960E946F02E296CB
:100530000FB6F894DEBF0FBECDBFDF91CF91089507
:100540005058BB27AA270E94B8020C9409040E94A5
:10055000FB0338F00E94020420F039F49F3F19F4A5
:1005600026F40C94F8030EF4E095E7FB0C94F203E8
:10057000E92F0E941A0458F3BA1762077307840719
:10058000950720F079F4A6F50C943C040EF4E09560
:100590000B2EBA2FA02D0B01B90190010C01CA013D
:1005A000A0011124FF27591B99F0593F50F4503EE8
:1005B00068F11A16F040A22F232F342F4427585FDA
:1005C000F3CF469537952795A795F0405395C9F7F2
:1005D0007EF41F16BA0B620B730B840BBAF09150AA
:1005E000A1F0FF0FBB1F661F771F881FC2F70EC049
:1005F000BA0F621F731F841F48F48795779567951C
:10060000B795F7959E3F08F0B0CF9395880F08F007
:100610009927EE0F9795879508950E9421030C94D2
:1006200009040E94020458F00E94FB0340F029F4E0
:100630005F3F29F00C94F20351110C943D040C948B
:10064000F8030E941A0468F39923B1F3552391F338
:10065000951B550BBB27AA2762177307840738F031
:100660009F5F5F4F220F331F441FAA1FA9F335D08E
:100670000E2E3AF0E0E832D091505040E695001C42
:10068000CAF72BD0FE2F29D0660F771F881FBB1FFC
:10069000261737074807AB07B0E809F0BB0B802DDA
:1006A000BF01FF2793585F4F3AF09E3F510578F006
:1006B0000C94F2030C943D045F3FE4F3983ED4F3B2
:1006C000869577956795B795F7959F5FC9F7880FDA
:1006D000911D9695879597F90895E1E0660F771F2C
:1006E000881FBB1F621773078407BA0720F0621BBD
:1006F000730B840BBA0BEE1F88F7E09508950E94E8
:1007000086036894B1110C943D0408950E9422045C
:1007100088F09F5798F0B92F9927B751B0F0E1F0C2
:10072000660F771F881F991F1AF0BA95C9F714C072
:10073000B13091F00E943C04B1E008950C943C0467
:10074000672F782F8827B85F39F0B93FCCF38695AB
:1007500077956795B395D9F73EF490958095709508
:1007600061957F4F8F4F9F4F0895E89409C097FB85
:100770003EF490958095709561957F4F8F4F9F4F78
:100780009923A9F0F92F96E9BB279395F6958795BC
:1007900077956795B795F111F8CFFAF4BB0F11F47F
:1007A00060FF1BC06F5F7F4F8F4F9F4F16C0882326
:1007B00011F096E911C0772321F09EE8872F762F5C
:1007C00005C0662371F096E8862F70E060E02AF09D
:1007D0009A95660F771F881FDAF7880F9695879589
:1007E00097F9089597F99F6780E870E060E00895B1
:1007F0009FEF80EC089500240A9416161706180639
:100800000906089500240A94121613061406050614
:100810000895092E0394000C11F4882352F0BB0FA5
:1008200040F4BF2B11F460FF04C06F5F7F4F8F4F08
:100830009F4F089557FD9058440F551F59F05F3F43
:1008400071F04795880F97FB991F61F09F3F79F0F2
:1008500087950895121613061406551FF2CF469574
:10086000F1DF08C0161617061806991FF1CF8695F6
:100870007105610508940895E894BB2766277727DA
:10088000CB0197F908950E9456040C9409040E9424
:10089000FB0338F00E94020420F0952311F00C9421
:1008A000F2030C94F80311240C943D040E941A04E2
:1008B00070F3959FC1F3950F50E0551F629FF001B3
:1008C000729FBB27F00DB11D639FAA27F00DB11DCC
:1008D000AA1F649F6627B00DA11D661F829F222755
:1008E000B00DA11D621F739FB00DA11D621F839FDC
:1008F000A00D611D221F749F3327A00D611D231FB2
:10090000849F600D211D822F762F6A2F11249F57FF
:1009100050409AF0F1F088234AF0EE0FFF1FBB1F02
:10092000661F771F881F91505040A9F79E3F5105C1
:1009300080F00C94F2030C943D045F3FE4F3983E86
:10094000D4F3869577956795B795F795E7959F5F6B
:10095000C1F7FE2B880F911D9695879597F90895FD
:10096000A1E21A2EAA1BBB1BFD010DC0AA1FBB1FB3
:10097000EE1FFF1FA217B307E407F50720F0A21B25
:10098000B30BE40BF50B661F771F881F991F1A9492
:1009900069F760957095809590959B01AC01BD01BC
:1009A000CF010895AEE0B0E0E8EDF4E00C948D07DF
:1009B0008C0186E08C831A8309838FEF9FE79E83E7
:1009C0008D83CE0101960E94EE04EF81F885E00F41
:1009D000F11F10822E96E4E00C94A907ABE0B0E082
:1009E000E4EFF4E00C947F076C017B018A01FC01C9
:1009F00017821682838181FFCCC1CE0101963C0112
:100A0000F6019381F70193FD859193FF81917F0119
:100A1000882309F4BAC1853239F493FD859193FF97
:100A200081917F01853229F4B60190E00E94E506AC
:100A3000E7CF912C212C312CFFE1F315D8F08B322C
:100A400079F038F4803279F08332A1F4232D2061DB
:100A50001DC08D3261F0803369F4232D216016C0F2
:100A6000832D8260382EE32DE4603E2E2AC0F32DC4
:100A7000F8601DC037FC2DC020ED280F2A3040F053
:100A80008E32B9F436FC81C1232D2064322E19C078
:100A900036FE06C08AE0989E200D1124922E11C0C9
:100AA000EAE02E9E200D1124222EF32DF0623F2E1F
:100AB00008C08C3621F4832D8068382E02C0883619
:100AC00041F4F70193FD859193FF81917F0181119D
:100AD000B3CF982F9F7D9554933028F40C5F1F4F10
:100AE0009FE399830DC0833631F0833771F08335EE
:100AF00009F059C021C0F801808189830E5F1F4F22
:100B000088248394912C530113C02801F2E04F0EE6
:100B1000511CF801A080B18036FE03C0692D70E041
:100B200002C06FEF7FEFC5010E94DA064C0182011F
:100B3000F32DFF773F2E16C0280122E0420E511CF4
:100B4000F801A080B18036FE03C0692D70E002C0BC
:100B50006FEF7FEFC5010E94CF064C01F32DF068C7
:100B60003F2E820133FC1BC0822D90E0881699062F
:100B7000B0F4B60180E290E00E94E5062A94F4CF3A
:100B8000F50137FC859137FE81915F01B60190E058
:100B90000E94E50621102A9421E0821A910881140E
:100BA000910471F7E8C0843611F0893641F5F801F7
:100BB00037FE07C060817181828193810C5F1F4F76
:100BC00008C060817181072E000C880B990B0E5FA5
:100BD0001F4FF32DFF763F2E97FF09C0909580950C
:100BE000709561957F4F8F4F9F4FF0683F2E2AE0A1
:100BF00030E0A3010E942107882E861845C0853762
:100C000031F4232D2F7EB22E2AE030E025C0932D23
:100C1000997FB92E8F36C1F018F4883579F0B5C0B8
:100C2000803719F0883721F0B0C0E92FE061BE2E7F
:100C3000B4FE0DC0FB2DF460BF2E09C034FE0AC007
:100C4000292F2660B22E06C028E030E005C020E142
:100C500030E002C020E132E0F801B7FE07C0608159
:100C60007181828193810C5F1F4F06C06081718109
:100C700080E090E00E5F1F4FA3010E942107882EA5
:100C80008618FB2DFF773F2E36FE0DC0232D2E7FBD
:100C9000A22E891458F434FE0BC032FC09C0832DF7
:100CA0008E7EA82E05C0B82CA32C03C0B82C01C082
:100CB000B92CA4FE0FC0FE01E80DF11D8081803328
:100CC00021F49A2D997EA92E09C0A2FE06C0B394E4
:100CD000B39404C08A2D867809F0B394A3FC11C0A4
:100CE000A0FE06C0B21488F4280C922C9B180EC0EB
:100CF000B21460F4B60180E290E00E94E506B3947D
:100D0000F7CFB21418F42B1802C0982C212CA4FE93
:100D100010C0B60180E390E00E94E506A2FE17C075
:100D2000A1FC03C088E790E002C088E590E0B6012E
:100D30000CC08A2D867859F0A1FE02C08BE201C05A
:100D400080E2A7FC8DE2B60190E00E94E5068914DE
:100D500038F4B60180E390E00E94E5069A94F7CF5C
:100D60008A94F301E80DF11D8081B60190E00E94A4
:100D7000E5068110F5CF222009F442CEB60180E2CB
:100D800090E00E94E5062A94F6CFF60186819781CD
:100D900002C08FEF9FEF2B96E2E10C949B07FC01C2
:100DA0000590615070400110D8F7809590958E0F96
:100DB0009F1F0895FC016150704001900110D8F709
:100DC000809590958E0F9F1F08950F931F93CF933B
:100DD000DF93FB01238121FD03C08FEF9FEF2CC028
:100DE00022FF16C04681578124813581421753075F
:100DF00044F4A081B1819D012F5F3F4F3183208357
:100E00008C93268137812F5F3F4F3783268314C011
:100E10008B01EC01FB010084F185E02D0995892B04
:100E2000E1F6D80116968D919C9117970196179629
:100E30009C938E931697CE01DF91CF911F910F91C6
:100E40000895FA01AA27283051F1203181F1E89460
:100E50006F936E7F6E5F7F4F8F4F9F4FAF4FB1E0AD
:100E60003ED0B4E03CD0670F781F891F9A1FA11DA8
:100E7000680F791F8A1F911DA11D6A0F711D811DA9
:100E8000911DA11D20D009F468943F912AE0269F6E
:100E900011243019305D3193DEF6CF010895462FCD
:100EA0004770405D4193B3E00FD0C9F7F6CF462FAE
:100EB0004F70405D4A3318F0495D31FD4052419317
:100EC00002D0A9F7EACFB4E0A695979587957795D4
:100ED0006795BA95C9F700976105710508959B015B
:100EE000AC010A2E06945795479537952795BA95E4
:100EF000C9F7620F731F841F951FA01D08952F92BD
:100F00003F924F925F926F927F928F929F92AF9299
:100F1000BF92CF92DF92EF92FF920F931F93CF93E6
:100F2000DF93CDB7DEB7CA1BDB0B0FB6F894DEBF7D
:100F30000FBECDBF09942A88398848885F846E84A3
:100F40007D848C849B84AA84B984C884DF80EE80ED
:100F5000FD800C811B81AA81B981CE0FD11D0FB6F6
:100F6000F894DEBF0FBECDBFED010895F894FFCF1A
:100F7000A601416C6F206D616369206E652072610E
:100F800064690A0D00322E0D0A00332E0D0A00345A
:100F90002E0D0A00555341525420696E69746961DF
:100FA0006C697A65642E0D0A0049324320696E69C6
:100FB0007469616C697A65642E0D0A004D43502096
:100FC0003120696E697469616C697A65642E0D0AF5
:100FD000004D4350203220696E697469616C697AF2
:100FE00065642E0D0A004D4350203320696E6974EC
:100FF00069616C697A65642E0D0A005379737465B2
:101000006D20696E697469616C697A65642E204D22
:101010006F6E69746F72696E67204D435032333062
:101020003038207374617465732E2E2E0D0A004DB6
:101030004350313A203078253032582C204D4350DF
:10104000323A203078253032582C204D4350333AF4
:10105000203078253032580D0A004B6579207072A7
:1010600065737365643A20436869702025642C2099
:1010700050696E2025642C204E6F746520256420F5
:10108000487A0D0A0006011501260137014A015D63
:1010900001720188019F01B801D201EE010B022A01
:1010A000024B026E029302BA02E40210033F037085
:0610B00003A403DC0300B1
:00000001FF
