S00D0000697A6C617A2E73726563ED
S11300000C942A000C9447000C9447000C9447006D
S11300100C9447000C9447000C9447000C94470040
S11300200C9447000C9447000C9447000C94F10482
S11300300C9447000C9447000C9447000C94470020
S11300400C9447000C9447000C9447000C94470010
S11300500C94470011241FBECFE5D4E0DEBFCDBF12
S113006010E0A0E6B0E0EAEFF3E102C005900D92E3
S1130070A83AB107D9F720E0A8EAB0E001C01D9280
S1130080AD3DB207E1F70E948B030C94FB090C947D
S113009000008F929F92AF92BF92CF92DF92EF9225
S11300A0FF920F931F936B017C01BA01550F880BCC
S11300B0990B0E94D4054B015C01A70196010E9493
S11300C060060E949C056B017C01A501940160E01F
S11300D070E080E89FE30E942A0520E030E543ECCD
S11300E057E40E9460060E949C058A9A1C141D0411
S11300F01E041F040CF03AC08B019C01992324F4C4
S11301000F5F1F4F2F4F3F4F359527951795079535
S1130110812C912C5401011511052105310511F192
S1130120D901C801B901A801EAE1EA95F1F700C0D3
S11301304150510961097109B9F716C04AE14A955C
S1130140F1F700C00197A109B109C1F792988FEFA7
S1130150881A980AA80AB80AC814D904EA04FB043D
S1130160D1F604C0929AF2CF929AE8CF1F910F91E0
S1130170FF90EF90DF90CF90BF90AF909F908F90C3
S113018008952F923F924F925F926F927F928F9237
S11301909F92AF92BF92CF92DF92EF92FF920F9312
S11301A01F93CF93DF93CDB7DEB72C970FB6F89498
S11301B0DEBF0FBECDBF8A0120E030E040EA51E44B
S11301C00E942A056F83788789879A878A9AC8014B
S11301D011230CF401969C01359527953C872B87B8
S11301E0C80199230CF403969C0135952795359500
S11301F027953E832D83212C312C0F2EF4E1CF2E15
S1130200D12CF02D0F2EFAE08F2E912CA12CB12C95
S1130210F02DC10164E170E00E94CD06EB84FC8402
S1130220E60EF71E32E3E316F1042CF40F2EF2E38C
S1130230EF2EF12CF02DB7010F2C000C880B990B2D
S11302400E94D4052F81388549855A850E9460060D
S11302500E949C058B01161617060CF486C001E05B
S113026010E083C0929A29833A834B835C8389810B
S11302709A81AB81BC810A97A105B10524F48982D6
S11302809A82AB82BC8289819A81AB81BC812C0128
S11302903D01E1E04E1A51086108710849825A8211
S11302A06B827C82892B8A2B8B2BA1F000008981A5
S11302B09A81AB81BC812C013D01E1E04E1A5108C9
S11302C06108710849825A826B827C82892B8A2B4D
S11302D08B2B61F7929829833A834B835C838981C2
S11302E09A81AB81BC810A97A105B10524F4898266
S11302F09A82AB82BC8289819A81AB81BC812C01B8
S11303003D01E1E04E1A51086108710849825A82A0
S11303106B827C82892B8A2B8B2BA1F00000898134
S11303209A81AB81BC812C013D01E1E04E1A510858
S11303306108710849825A826B827C82892B8A2BDC
S11303408B2B61F76F5F7F4F601771070CF48ACFB7
S113035021E0C21AD1088D819E81280E391EC11454
S1130360D10409F056CF92980DC09701FF0C440BAD
S1130370550B60E874E88EE190E00E94E10660E0CD
S113038070E070CF2C960FB6F894DEBF0FBECDBFD1
S1130390DF91CF911F910F91FF90EF90DF90CF905D
S11303A0BF90AF909F908F907F906F905F904F9091
S11303B03F902F900895DA9A8FE19CE10197F1F72D
S11303C000C00000DA988FE19CE10197F1F700C0CA
S11303D000000895D39AD29AD49AD59AD69AD79AE5
S11303E0DB982FEF80E792E0215080409040E1F7C6
S11303F000C00000DF98DE98DD9ADC9A0E94DB01E1
S11304008FE19EE40197F1F700C00000DF98DE98C9
S1130410DD9ADC9A0E94DB0187EE93E00197F1F705
S113042000C00000DF98DE98DD9ADC9A0E94DB01B0
S113043087EE93E00197F1F700C00000DF98DE98A3
S1130440DD9ADC980E94DB0187EE93E00197F1F7D7
S113045000C00000DF98DE98DD9ADC980E94DB0182
S1130460DF9ADE98DD98DC980E94DB018BE291E054
S11304700197F1F700C00000DF98DE98DD98DC9862
S11304800E94DB01DF9ADE98DD98DC980E94DB0194
S11304908BE291E00197F1F700C00000DF98DE984D
S11304A0DD98DC980E94DB01DF98DE98DD98DC9A09
S11304B00E94DB018FED9EE20197F1F700C000007E
S11304C0DF98DE98DD98DC980E94DB01DF98DE9AE5
S11304D0DD9ADC980E94DB018BE291E00197F1F751
S11304E000C00000DF98DE98DD98DC980E94DB01F4
S11304F0DF9ADE9ADD98DC980E94DB018BE291E0C2
S11305000197F1F700C000000895DA9A8FEA94E0A9
S11305100197F1F700C00000DA980895CF93C82F2F
S1130520662311F0DB9A01C0DB98DF98DE98DD9832
S1130530DC98CC230CF4DF9AC6FDDE9AC5FDDD9A67
S1130540C4FDDC9A0E948502DF98DE98DD98DC9871
S1130550C3FDDF9AC2FDDE9AC1FDDD9AC0FDDC9ABF
S11305600E948502DC9ADD9ADE9ADF9ACF91089583
S113057060E00E948E020895823031F0833031F0C1
S1130580813031F490E405C094E103C094E501C0E6
S113059090E0282F30E03093A9002093A80080E851
S11305A0890F0E94B80208958A3079F48091A800D6
S11305B09091A9001816190624F480E00E94BC0248
S11305C008958F5F0E94BC02089561E00E948E022C
S11305D00895CF93DF93EC012196FC018081882359
S11305E029F00E94D40289918111FBCFDF91CF9130
S11305F00895CF93DF93CDB7DEB7C055D1090FB6B9
S1130600F894DEBF0FBECDBFAE014B5A5F4FFA0167
S113061061917191AF01CE0101960E941707CE013D
S113062001960E94E902C05BDF4F0FB6F894DEBF6B
S11306300FBECDBFDF91CF9108951092A900109203
S1130640A80081E00E94B8028FE19EE40197F1F7CF
S113065000C0000008951092A9001092A80082E042
S11306600E94B8028FE19EE40197F1F700C00000F8
S11306700895CF93C82FCC0F8C2F0E94930481111F
S113068014C00E94D9048FEF0E94D9040E94D3049D
S11306908C2F0E949304811108C086E00E94D90423
S11306A08FEF0E94D9040E94D304CF910895CF9371
S11306B0C82FCC0F8C2F0E94930489E00E94D90488
S11306C08C2F81600E94B3040E94E604C82F0E940C
S11306D0D3048C2FCF910895B898C09A0E94EA0150
S11306E008950E941D030E942B038091AA0081118A
S11306F009C083E690E09F938F930E94F9020F90C4
S11307000F90089587E690E09F938F930E94F902DB
S11307100F900F900895CF93DF9300D000D000D0B6
S1130720CDB7DEB70E946C030E941D030E942B0309
S113073080E790E09F938F930E94F9022FEF89E660
S113074098E1215080409040E1F700C000000E94F1
S1130750710348EB51E06DEC7CEC8CE49EE30E9469
S1130760C10060EA76E881E090E00E947D0481E2C5
S11307700E94390382E20E94390383E20E94390312
S1130780EFEFF0E722E0E150F0402040E1F700C055
S113079000004BE052E06DEC7CEC8CEC9DE30E949D
S11307A0C1008FEF90E7E2E081509040E040E1F734
S11307B000C0000043E952E06DEC7CEC8CEC9DE35E
S11307C00E94C100FFEF20E782E0F150204080400A
S11307D0E1F700C0000040E153E06DEC7CEC8CECF0
S11307E09DE30E94C1008FEF89838A838B830F90DE
S11307F00F9077247394812C86B3182F117080FD89
S11308001EC0809160008130D1F4872D9091AA00A0
S11308109111882D8093AA000E94710340E753E050
S11308206DEC7CEC8CEC9DE30E9449009FEFE1EEC3
S1130830F4E09150E040F040E1F700C00000109374
S1130840600081E20E9457038C8382E20E94570376
S11308508D8383E20E9457038E836E0124E0C20ECF
S1130860D11CCE0101965C01912C39C0F601E080C7
S11308708E2D90E0002E02C0959587950A94E2F79C
S113088080FD1CC0F501808190E0002E02C095958A
S113089087950A94E2F780FF11C0F7E1FF1570F025
S11308A0EF2DF0E0EE0FFF1FE858FF4F408151811C
S11308B06DEC7CEC8CE49EE30E9449000F5F1F4FBB
S11308C0F3940830110591F62FEFC21AD20AF501FC
S11308D0E1925F01F8E09F0E28E1921621F0F92CD5
S11308E000E010E0C3CF8FE798E3E1E0815090404F
S11308F0E040E1F700C000007FCF9B01AC0111B8DC
S113090060E072E18AE790E00E94E106DA01C90141
S11309104097A109B109B695A7959795879580B990
S113092084E086BF089594EA96BF06B607FEFDCF1D
S113093091B1987F9830A9F483B994E896BF06B62C
S113094007FEFDCF80FD02C048E101C040E421B1B3
S1130950287F30E050E081E02417350719F480E067
S1130960089581E0089594EA96BF06B607FEFDCF88
S113097091B1987F9031A9F483B994E896BF06B6F3
S113098007FEFDCF80FD02C048E101C040E421B173
S1130990287F30E050E081E02417350719F480E027
S11309A0089581E0089584E986BF06B604FCFDCF6E
S11309B0089583B984E886BF06B607FEFDCF91B1DA
S11309C0987F81E0983209F480E0089584E886BF36
S11309D006B607FEFDCF83B108955F9BFECF8CB1B1
S11309E008951F920F920FB60F9211242F933F93E5
S11309F04F935F936F937F938F939F93AF93BF9323
S1130A00CF93DF93EF93FF93C0916100D091620085
S1130A100E94ED048883E0916100F091620080817E
S1130A208D3029F03196F0936200E0936100FF91DC
S1130A30EF91DF91CF91BF91AF919F918F917F9172
S1130A406F915F914F913F912F910F900FBE0F9037
S1130A501F9018950E943E050C9426060E941F06BE
S1130A6058F00E94180640F029F45F3F29F00C94D6
S1130A700F0651110C945A060C9415060E94370661
S1130A8068F39923B1F3552391F3951B550BBB27B9
S1130A90AA2762177307840738F09F5F5F4F220FFE
S1130AA0331F441FAA1FA9F335D00E2E3AF0E0E8F5
S1130AB032D091505040E695001CCAF72BD0FE2F3F
S1130AC029D0660F771F881FBB1F261737074807D3
S1130AD0AB07B0E809F0BB0B802DBF01FF2793588B
S1130AE05F4F3AF09E3F510578F00C940F060C943A
S1130AF05A065F3FE4F3983ED4F38695779567955D
S1130B00B795F7959F5FC9F7880F911D96958795BF
S1130B1097F90895E1E0660F771F881FBB1F6217DE
S1130B2073078407BA0720F0621B730B840BBA0B9C
S1130B30EE1F88F7E09508950E94A3056894B1110B
S1130B400C945A0608950E943F0688F09F5798F027
S1130B50B92F9927B751B0F0E1F0660F771F881FBE
S1130B60991F1AF0BA95C9F714C0B13091F00E94D8
S1130B705906B1E008950C945906672F782F8827F9
S1130B80B85F39F0B93FCCF3869577956795B395FF
S1130B90D9F73EF490958095709561957F4F8F4F6E
S1130BA09F4F0895E89409C097FB3EF49095809573
S1130BB0709561957F4F8F4F9F4F9923A9F0F92F1F
S1130BC096E9BB279395F695879577956795B7959D
S1130BD0F111F8CFFAF4BB0F11F460FF1BC06F5F83
S1130BE07F4F8F4F9F4F16C0882311F096E911C095
S1130BF0772321F09EE8872F762F05C0662371F0B6
S1130C0096E8862F70E060E02AF09A95660F771FC9
S1130C10881FDAF7880F9695879597F9089597F9BD
S1130C209F6780E870E060E008959FEF80EC08958E
S1130C3000240A94161617061806090608950024B7
S1130C400A9412161306140605060895092E039431
S1130C50000C11F4882352F0BB0F40F4BF2B11F4A5
S1130C6060FF04C06F5F7F4F8F4F9F4F089557FD04
S1130C709058440F551F59F05F3F71F04795880F06
S1130C8097FB991F61F09F3F79F08795089512169D
S1130C9013061406551FF2CF4695F1DF08C0161649
S1130CA017061806991FF1CF8695710561050894FA
S1130CB00895E894BB2766277727CB0197F9089511
S1130CC00E9473060C9426060E94180638F00E94AF
S1130CD01F0620F0952311F00C940F060C941506B2
S1130CE011240C945A060E94370670F3959FC1F3A1
S1130CF0950F50E0551F629FF001729FBB27F00DC6
S1130D00B11D639FAA27F00DB11DAA1F649F66271A
S1130D10B00DA11D661F829F2227B00DA11D621F69
S1130D20739FB00DA11D621F839FA00D611D221F23
S1130D30749F3327A00D611D231F849F600D211D07
S1130D40822F762F6A2F11249F5750409AF0F1F08A
S1130D5088234AF0EE0FFF1FBB1F661F771F881FF3
S1130D6091505040A9F79E3F510580F00C940F0616
S1130D700C945A065F3FE4F3983ED4F38695779536
S1130D806795B795F795E7959F5FC1F7FE2B880F99
S1130D90911D9695879597F9089597FB072E16F45C
S1130DA0009407D077FD09D00E94030707FC05D003
S1130DB03EF4909581959F4F0895709561957F4F6E
S1130DC00895A1E21A2EAA1BBB1BFD010DC0AA1F88
S1130DD0BB1FEE1FFF1FA217B307E407F50720F0A0
S1130DE0A21BB30BE40BF50B661F771F881F991F1B
S1130DF01A9469F760957095809590959B01AC0164
S1130E00BD01CF010895AA1BBB1B51E107C0AA1F56
S1130E10BB1FA617B70710F0A61BB70B881F991F97
S1130E205A95A9F780959095BC01CD010895AEE03F
S1130E30B0E0EDE1F7E00C94D2098C0186E08C83FC
S1130E401A8309838FEF9FE79E838D83CE010196DA
S1130E500E943307EF81F885E00FF11F10822E9670
S1130E60E4E00C94EE09ABE0B0E0E9E3F7E00C94C5
S1130E70C4096C017B018A01FC01178216828381FB
S1130E8081FFCCC1CE0101963C01F6019381F701AB
S1130E9093FD859193FF81917F01882309F4BAC161
S1130EA0853239F493FD859193FF81917F018532D9
S1130EB029F4B60190E00E942A09E7CF912C212C55
S1130EC0312CFFE1F315D8F08B3279F038F480320D
S1130ED079F08332A1F4232D20611DC08D3261F09D
S1130EE0803369F4232D216016C0832D8260382E4F
S1130EF0E32DE4603E2E2AC0F32DF8601DC037FCBC
S1130F002DC020ED280F2A3040F08E32B9F436FC83
S1130F1081C1232D2064322E19C036FE06C08AE01A
S1130F20989E200D1124922E11C0EAE02E9E200DD1
S1130F301124222EF32DF0623F2E08C08C3621F4AA
S1130F40832D8068382E02C0883641F4F70193FD62
S1130F50859193FF81917F018111B3CF982F9F7D5C
S1130F609554933028F40C5F1F4F9FE399830DC071
S1130F70833631F0833771F0833509F059C021C0CD
S1130F80F801808189830E5F1F4F88248394912CFC
S1130F90530113C02801F2E04F0E511CF801A08048
S1130FA0B18036FE03C0692D70E002C06FEF7FEFA1
S1130FB0C5010E941F094C018201F32DFF773F2ECA
S1130FC016C0280122E0420E511CF801A080B18015
S1130FD036FE03C0692D70E002C06FEF7FEFC501DC
S1130FE00E9414094C01F32DF0683F2E820133FC5A
S1130FF01BC0822D90E088169906B0F4B60180E2F9
S113100090E00E942A092A94F4CFF50137FC8591D7
S113101037FE81915F01B60190E00E942A092110F8
S11310202A9421E0821A91088114910471F7E8C08E
S1131030843611F0893641F5F80137FE07C0608126
S11310407181828193810C5F1F4F08C0608171811F
S1131050072E000C880B990B0E5F1F4FF32DFF76A4
S11310603F2E97FF09C090958095709561957F4FAD
S11310708F4F9F4FF0683F2E2AE030E0A3010E947B
S11310806609882E861845C0853731F4232D2F7EB6
S1131090B22E2AE030E025C0932D997FB92E8F36E9
S11310A0C1F018F4883579F0B5C0803719F0883765
S11310B021F0B0C0E92FE061BE2EB4FE0DC0FB2DBF
S11310C0F460BF2E09C034FE0AC0292F2660B22E58
S11310D006C028E030E005C020E130E002C020E195
S11310E032E0F801B7FE07C060817181828193818B
S11310F00C5F1F4F06C06081718180E090E00E5F3D
S11311001F4FA3010E946609882E8618FB2DFF77C6
S11311103F2E36FE0DC0232D2E7FA22E891458F4A7
S113112034FE0BC032FC09C0832D8E7EA82E05C070
S1131130B82CA32C03C0B82C01C0B92CA4FE0FC03A
S1131140FE01E80DF11D8081803321F49A2D997EF2
S1131150A92E09C0A2FE06C0B394B39404C08A2D7C
S1131160867809F0B394A3FC11C0A0FE06C0B214A3
S113117088F4280C922C9B180EC0B21460F4B601AB
S113118080E290E00E942A09B394F7CFB21418F4D5
S11311902B1802C0982C212CA4FE10C0B60180E3A9
S11311A090E00E942A09A2FE17C0A1FC03C088E7B0
S11311B090E002C088E590E0B6010CC08A2D8678E4
S11311C059F0A1FE02C08BE201C080E2A7FC8DE2CF
S11311D0B60190E00E942A09891438F4B60180E32C
S11311E090E00E942A099A94F7CF8A94F301E80DBB
S11311F0F11D8081B60190E00E942A098110F5CF8B
S1131200222009F442CEB60180E290E00E942A092D
S11312102A94F6CFF6018681978102C08FEF9FEF63
S11312202B96E2E10C94E009FC01059061507040BA
S11312300110D8F7809590958E0F9F1F0895FC019B
S11312406150704001900110D8F7809590958E0FF1
S11312509F1F08950F931F93CF93DF93FB01238167
S113126021FD03C08FEF9FEF2CC022FF16C04681E3
S11312705781248135814217530744F4A081B181F9
S11312809D012F5F3F4F318320838C9326813781CB
S11312902F5F3F4F3783268314C08B01EC01FB0182
S11312A00084F185E02D0995892BE1F6D801169685
S11312B08D919C911797019617969C938E931697F0
S11312C0CE01DF91CF911F910F910895FA01AA27C2
S11312D0283051F1203181F1E8946F936E7F6E5F75
S11312E07F4F8F4F9F4FAF4FB1E03ED0B4E03CD023
S11312F0670F781F891F9A1FA11D680F791F8A1F06
S1131300911DA11D6A0F711D811D911DA11D20D06C
S113131009F468943F912AE0269F11243019305D26
S11313203193DEF6CF010895462F4770405D419317
S1131330B3E00FD0C9F7F6CF462F4F70405D4A3364
S113134018F0495D31FD4052419302D0A9F7EACF2C
S1131350B4E0A6959795879577956795BA95C9F75B
S113136000976105710508959B01AC010A2E06944E
S11313705795479537952795BA95C9F7620F731F07
S1131380841F951FA01D08952F923F924F925F9244
S11313906F927F928F929F92AF92BF92CF92DF9281
S11313A0EF92FF920F931F93CF93DF93CDB7DEB7E6
S11313B0CA1BDB0B0FB6F894DEBF0FBECDBF09947A
S11313C02A88398848885F846E847D848C849B84D1
S11313D0AA84B984C884DF80EE80FD800C811B81DF
S11313E0AA81B981CE0FD11D0FB6F894DEBF0FBE0E
S10D13F0CDBFED010895F894FFCF7E
S11313FA01AB0050574D00736177746F6F746800C6
S113140A57656C636F6D6500060115012601370186
S113141A4A015D01720188019F01B801D201EE01FE
S113142A0B022A024B026E029302BA02E40210036E
S10B143A3F037003A403DC036B
S9030000FC
