:100000000C942A000C943F000C943F000C943F0089
:100010000C943F000C943F000C943F000C943F0064
:100020000C943F000C943F000C943F000C943F0054
:100030000C943F000C943F000C943F000C943F0044
:100040000C943F000C943F000C943F000C943F0034
:100050000C943F0011241FBECFE5D4E0DEBFCDBF1E
:1000600010E0A0E6B0E0E4ECF6E002C005900D92EE
:10007000A039B107D9F70E94D7000C9460030C9403
:1000800000008F929F92AF92BF92CF92DF92EF9239
:10009000FF920F931F936B017C01BA01550F880BE0
:1000A000990B0E9445024B015C01A70196010E9439
:1000B000D1020E940D026B017C01A501940160E058
:1000C00070E080E89FE30E949B0120E030E543EC74
:1000D00057E40E94D1020E940D028A9A1C141D044A
:1000E0001E041F040CF03AC08B019C01992324F4D8
:1000F0000F5F1F4F2F4F3F4F35952795179507954A
:10010000812C912C5401011511052105310511F1A6
:10011000D901C801B901A801EAE1EA95F1F700C0E7
:100120004150510961097109B9F716C04AE14A9570
:10013000F1F700C00197A109B109C1F792988FEFBB
:10014000881A980AA80AB80AC814D904EA04FB0451
:10015000D1F604C0929AF2CF929AE8CF1F910F91F4
:10016000FF90EF90DF90CF90BF90AF909F908F90D7
:1001700008950E945D0180E00E9487018FEF0E9438
:1001800087010E9481010895CF93C82F0E945D01CD
:1001900089E00E9487018C2F81600E947E010E946D
:1001A0009401C82F0E9481018C2FCF910895CF9385
:1001B000DF9300D000D000D0CDB7DEB760EA76E89C
:1001C00081E090E00E94470182E40E94B90084E44B
:1001D0000E94B90086E40E94B9008FEF89838A8368
:1001E0008B8382E40E94C4008C8384E40E94C40058
:1001F0008D8386E40E94C4008E837E0184E0E80E35
:10020000F11CFE0131966F01912C36C0F701A080E0
:100210008A2D90E0002E02C0959587950A94E2F70A
:1002200080FD19C0F601808190E0002E02C09595F6
:1002300087950A94E2F780FF0EC0EB2DF0E0EE0FF9
:10024000FF1FE05AFF4F408151816DEC7CEC8CE444
:100250009EE30E9441000F5F1F4FB39408301105C9
:10026000A9F6FFEFEF1AFF0AF601A1926F01F8E07D
:100270009F0E88E1981621F0B92C00E010E0C6CF5F
:10028000EFE1FEE43197F1F700C00000AACF9B0137
:10029000AC0111B860E472E48FE090E00E943E038C
:1002A000DA01C9014097A109B109B695A7959795BB
:1002B000879580B984E086BF089594EA96BF06B614
:1002C00007FEFDCF91B1987F9830B1F483B994E8DF
:1002D00096BF06B607FEFDCF21B1287F30E080FD36
:1002E00003C048E150E002C040E450E081E0421722
:1002F000530719F480E0089581E008950E945D019C
:10030000089584E986BF06B604FCFDCF089583B93D
:1003100084E886BF06B607FEFDCF91B1987F81E0E5
:10032000983209F480E0089584E886BF06B607FE97
:10033000FDCF83B108950E94AF010C9497020E94F3
:10034000900258F00E94890240F029F45F3F29F0A2
:100350000C94800251110C94CB020C9486020E94E2
:10036000A80268F39923B1F3552391F3951B550B1C
:10037000BB27AA2762177307840738F09F5F5F4F78
:10038000220F331F441FAA1FA9F335D00E2E3AF0B7
:10039000E0E832D091505040E695001CCAF72BD0CF
:1003A000FE2F29D0660F771F881FBB1F2617370720
:1003B0004807AB07B0E809F0BB0B802DBF01FF2752
:1003C00093585F4F3AF09E3F510578F00C948002AD
:1003D0000C94CB025F3FE4F3983ED4F38695779577
:1003E0006795B795F7959F5FC9F7880F911D96950B
:1003F000879597F90895E1E0660F771F881FBB1F67
:10040000621773078407BA0720F0621B730B840B13
:10041000BA0BEE1F88F7E09508950E9414026894C5
:10042000B1110C94CB0208950E94B00288F09F573E
:1004300098F0B92F9927B751B0F0E1F0660F771F08
:10044000881F991F1AF0BA95C9F714C0B13091F0FE
:100450000E94CA02B1E008950C94CA02672F782F57
:100460008827B85F39F0B93FCCF3869577956795C3
:10047000B395D9F73EF490958095709561957F4F2F
:100480008F4F9F4F0895E89409C097FB3EF49095D5
:100490008095709561957F4F8F4F9F4F9923A9F05D
:1004A000F92F96E9BB279395F695879577956795EC
:1004B000B795F111F8CFFAF4BB0F11F460FF1BC030
:1004C0006F5F7F4F8F4F9F4F16C0882311F096E9C3
:1004D00011C0772321F09EE8872F762F05C0662371
:1004E00071F096E8862F70E060E02AF09A95660F2A
:1004F000771F881FDAF7880F9695879597F90895E3
:1005000097F99F6780E870E060E008959FEF80ECC6
:10051000089500240A941616170618060906089569
:1005200000240A9412161306140605060895092ECF
:100530000394000C11F4882352F0BB0F40F4BF2B3E
:1005400011F460FF04C06F5F7F4F8F4F9F4F08957E
:1005500057FD9058440F551F59F05F3F71F0479574
:10056000880F97FB991F61F09F3F79F08795089559
:10057000121613061406551FF2CF4695F1DF08C078
:10058000161617061806991FF1CF86957105610595
:1005900008940895E894BB2766277727CB0197F93D
:1005A00008950E94E4020C9497020E94890238F098
:1005B0000E94900220F0952311F00C9480020C947C
:1005C000860211240C94CB020E94A80270F3959F1E
:1005D000C1F3950F50E0551F629FF001729FBB273A
:1005E000F00DB11D639FAA27F00DB11DAA1F649FD6
:1005F0006627B00DA11D661F829F2227B00DA11D89
:10060000621F739FB00DA11D621F839FA00D611D0E
:10061000221F749F3327A00D611D231F849F600D2F
:10062000211D822F762F6A2F11249F5750409AF058
:10063000F1F088234AF0EE0FFF1FBB1F661F771FE4
:10064000881F91505040A9F79E3F510580F00C94AF
:1006500080020C94CB025F3FE4F3983ED4F386957E
:1006600077956795B795F795E7959F5FC1F7FE2B4F
:10067000880F911D9695879597F90895A1E21A2EF6
:10068000AA1BBB1BFD010DC0AA1FBB1FEE1FFF1F36
:10069000A217B307E407F50720F0A21BB30BE40B86
:1006A000F50B661F771F881F991F1A9469F76095CD
:1006B0007095809590959B01AC01BD01CF01089587
:0406C000F894FFCFDC
:1006C40006011501260137014A015D017201880105
:1006D4009F01B801D201EE010B022A024B026E0205
:1006E4009302BA02E40210033F037003A403DC0381
:00000001FF
