S00D0000697A6C617A2E73726563ED
S11300000C942A000C9447000C9447000C9447006D
S11300100C9447000C9447000C9447000C94470040
S11300200C9447000C9447000C9447000C94B400C3
S11300300C9447000C9447000C9447000C94470020
S11300400C9447000C9447000C9447000C94470010
S11300500C94470011241FBECFE5D4E0DEBFCDBF12
S113006010E0A0E6B0E0EEE0F6E002C005900D92EC
S1130070AC3DB107D9F721E0ACEDB0E001C01D9271
S1130080AE30B207E1F70E9449000C9405030C94CA
S1130090000060E875E280E090E00E948A0082E659
S11300A090E00E94ED0081E890E00E94ED00C0E045
S11300B01DEC83EC90E00E94ED00CA3028F480E34C
S11300C08C0F0E94B00014C0C19FD12D1124D6956D
S11300D0D695D69580E38D0F0E94B000DD0F8D2F4D
S11300E0880F880FD80F8C2F8D1B805D0E94B00065
S11300F080EC90E00E94ED00CF5FC43608F0C0E0D1
S11301002FEF83ED90E3215080409040E1F700C051
S11301100000CFCF0E940A0220E030E040E851E422
S11301200E9498029B01AC0160E074E284EF9AE4BF
S11301300E94690120E030E040E85FE30E94FC0097
S11301400E94DB0169B970BD80B5866880BD8AB143
S113015088618AB9579A08955F9BFECF8CB1089540
S11301605D9BFECF8CB908951F920F920FB60F922C
S113017011242F933F934F935F936F937F938F93A8
S11301809F93AF93BF93CF93DF93EF93FF93C0916C
S11301906000D09161000E94AC008883E09160000F
S11301A0F091610080818D3029F03196F0936100E7
S11301B0E0936000FF91EF91DF91CF91BF91AF91F8
S11301C09F918F917F916F915F914F913F912F916B
S11301D00F900FBE0F901F901895CF93DF93EC01F3
S11301E08881882331F021960E94B0008991811181
S11301F0FBCFDF91CF9108955058BB27AA270E94C7
S113020014010C945E020E94500238F00E945702BE
S113021020F039F49F3F19F426F40C944D020EF4A7
S1130220E095E7FB0C944702E92F0E946F0258F314
S1130230BA17620773078407950720F079F4A6F5C7
S11302400C9491020EF4E0950B2EBA2FA02D0B0105
S1130250B90190010C01CA01A0011124FF27591B07
S113026099F0593F50F4503E68F11A16F040A22F0D
S1130270232F342F4427585FF3CF4695379527957E
S1130280A795F0405395C9F77EF41F16BA0B620B7D
S1130290730B840BBAF09150A1F0FF0FBB1F661FC4
S11302A0771F881FC2F70EC0BA0F621F731F841F07
S11302B048F4879577956795B795F7959E3F08F02D
S11302C0B0CF9395880F08F09927EE0F97958795EF
S11302D008950E947D010C945E020E94570258F01A
S11302E00E94500240F029F45F3F29F00C94470229
S11302F051110C9492020C944D020E946F0268F307
S11303009923B1F3552391F3951B550BBB27AA27CA
S113031062177307840738F09F5F5F4F220F331F04
S1130320441FAA1FA9F335D00E2E3AF0E0E832D0CC
S113033091505040E695001CCAF72BD0FE2F29D0CF
S1130340660F771F881FBB1F261737074807AB07A1
S1130350B0E809F0BB0B802DBF01FF2793585F4F16
S11303603AF09E3F510578F00C9447020C949202A7
S11303705F3FE4F3983ED4F3869577956795B795F8
S1130380F7959F5FC9F7880F911D9695879597F903
S11303900895E1E0660F771F881FBB1F621773077C
S11303A08407BA0720F0621B730B840BBA0BEE1F91
S11303B088F7E09508950E94770288F09F5798F097
S11303C0B92F9927B751B0F0E1F0660F771F881F56
S11303D0991F1AF0BA95C9F714C0B13091F00E9470
S11303E09102B1E008950C949102672F782F882729
S11303F0B85F39F0B93FCCF3869577956795B39597
S1130400D9F73EF490958095709561957F4F8F4F05
S11304109F4F0895E89409C097FB3EF4909580950A
S1130420709561957F4F8F4F9F4F9923A9F0F92FB6
S113043096E9BB279395F695879577956795B79534
S1130440F111F8CFFAF4BB0F11F460FF1BC06F5F1A
S11304507F4F8F4F9F4F16C0882311F096E911C02C
S1130460772321F09EE8872F762F05C0662371F04D
S113047096E8862F70E060E02AF09A95660F771F61
S1130480881FDAF7880F9695879597F9089597F955
S11304909F6780E870E060E008959FEF80EC089526
S11304A000240A941616170618060906089500244F
S11304B00A9412161306140605060895092E0394C9
S11304C0000C11F4882352F0BB0F40F4BF2B11F43D
S11304D060FF04C06F5F7F4F8F4F9F4F089557FD9C
S11304E09058440F551F59F05F3F71F04795880F9E
S11304F097FB991F61F09F3F79F087950895121635
S113050013061406551FF2CF4695F1DF08C01616E0
S113051017061806991FF1CF869571056105089491
S11305200895E894BB2766277727CB0197F90895A8
S11305300E94AB020C945E020E94500238F00E94AA
S1130540570220F0952311F00C9447020C944D02AD
S113055011240C9492020E946F0270F3959FC1F3D0
S1130560950F50E0551F629FF001729FBB27F00D5D
S1130570B11D639FAA27F00DB11DAA1F649F6627B2
S1130580B00DA11D661F829F2227B00DA11D621F01
S1130590739FB00DA11D621F839FA00D611D221FBB
S11305A0749F3327A00D611D231F849F600D211D9F
S11305B0822F762F6A2F11249F5750409AF0F1F022
S11305C088234AF0EE0FFF1FBB1F661F771F881F8B
S11305D091505040A9F79E3F510580F00C9447027A
S11305E00C9492025F3FE4F3983ED4F3869577959A
S11305F06795B795F795E7959F5FC1F7FE2B880F31
S1110600911D9695879597F90895F894FFCF6C
S113060EDC003D3D3D3D3D20555341525420546543
S113061E7374205374617274203D3D3D3D3D0D0A4B
S113062E00465F4350553A20383030303030302059
S113063E487A2C20426175643A20393630302E20A7
S113064E456E73757265205265616C7465726D20AA
S113065E6973204F70656E206F6E20434F4D3521A8
S113066E0D0A005570616C6A656E6F207261646963
S10F067E2C2062726F6A61633A20000055
S9030000FC
